:030000000208AD46
:0C08AD00787FE4F6D8FD75812002080079
:10088D00EF1FAC0670011E4C6007000000000080D9
:02089D00EF2248
:10086D00E4FDFCC3ED9FEC9E5015E4FBFA0BBB00C1
:0F087D00010ABA04F8BBFBF50DBD00010C80E4C5
:01088C002249
:0E089F00D2A012088DC2A07F127E0002086D4A
:100800009003E8C200C20143B00420B20F20010CE3
:100810007F147E0012086D20B202D2013001EB205D
:10082000001D74642582F582E43583F583C3E58277
:1008300094D0E583940740239007D0D200801C74A5
:100840009C2582F58274FF3583F583D3E58294E895
:10085000E583940350059003E8C200E4F9E9C394EA
:0D0860000A50A7AF82AE8312089F0980F0F6
:00000001FF
